0100001N/A           FORT RUCKER                   P.O. BOX 279             FT. RUCKER        AL36362              6   01045DALE                     00218020000                                                             
0100002210           ALABAMA YOUTH SERVICES        P O BOX 66               MT MEIGS          AL36057    2052729100500001101MONTGOMERY               00524020712000030000620000000004390000439000331000000000000000000000000 
0100003N/A           MAXWELL AIR BASE              BUILDING 538             MAXWELL A.F.B.    AL36112              6   01101MONTGOMERY               00524010000                                                             
0100004N/A           FORT MCCLELLAN                LITTLE BRAND & MORTON RD.FT. MCCLELLAN     AL36205              6   01015CALHOUN                  00045020000                                                             
0100005101           ALBERTVILLE CITY              P O BOX 1487             ALBERTVILLE       AL35950    2058911183100001095MARSHALL                 0000003KG12000060001720000000031850003185000381000173000000000000000000 
0100006048           MARSHALL COUNTY               6909 HIGHWAY 431 SOUTH   GUNTERSVILLE      AL35976    2055823171100001095MARSHALL                 0000003KG12000100002610000000055230005523000657000290000000000000000000 
0100007158           HOOVER CITY                   1855 DATA DRIVE SUITE 250HOOVER            AL35244    2059852425100001073JEFFERSON                0010002KG12000070003840000000057730005773000798000365000000000000000000 
0100030102           ALEXANDER CITY CITY           P O BOX 1205             ALEXANDER CITY    AL35010    2052345074100001123TALLAPOOSA               0000003KG12000050001940000000038430003843000342000241000000000000000000 
0100060104           ANDALUSIA CITY                122 SIXTH AVENUE         ANDALUSIA         AL36420    2052223186100001039COVINGTON                0000003KG12000040001320000000022500002250000424000126000000000000000000 
0100090105           ANNISTON CITY                 P O BOX 1500             ANNISTON          AL36202    2052379531100001015CALHOUN                  0004501KG12000090002620000000043940004394000722000241000000000000000000 
0100100106           ARAB CITY                     P O DRAWER O             ARAB              AL35016    2055866011100001095MARSHALL                 0000003KG12000040001220000000027040002704000314000203000000000000000000 
0100120107           ATHENS CITY                   313 E WASHINGTON ST      ATHENS            AL35611    2052336600100001083LIMESTONE                0034402KG12000060001580000000028760002876000271000190000000000000000000 
0100180109           ATTALLA CITY                  101 CASE AVENUE          ATTALLA           AL35954    2055388051100001055ETOWAH                   0028802KG12000040001250000000022880002288000298000217000000000000000000 
0100210110           AUBURN CITY                   P O BOX 2208             AUBURN            AL36830    2058872100100001081LEE                      0000003KG12000060001870000000033780003378000400000237000000000000000000 
0100240001           AUTAUGA COUNTY                P O BOX 130              PRATTVILLE        AL36067    2053655706100001001AUTAUGA                  0052402KG12000100003380000000068470006847000971000397000000000000000000 
0100270002           BALDWIN COUNTY                175 COURTHOUSE SQUARE    BAY MINETTE       AL36507    2059370308100001003BALDWIN                  0051602KG12000300008820000000170540017054002350001015000000000000000000 
0100300003           BARBOUR COUNTY                P O BOX 219              CLAYTON           AL36016    2057753453100001005BARBOUR                  0000003KG12000070001420000000022500002250000733000118000000000000000000 
0100330113           BESSEMER CITY                 P O BOX 868              BESSEMER          AL35021    2054819800100001073JEFFERSON                0010001KG12000070002970000000058060005806000797000214000000000000000000 
0100360004           BIBB COUNTY                   103 S W DAVIDSON DR      CENTREVILLE       AL35042    2059269881100001007BIBB                     0000003KG12000080001760000000036210003621000617000185000000000000000000 
0100390114           BIRMINGHAM CITY               P O BOX 10007            BIRMINGHAM        AL35202    2055834701100001073JEFFERSON                0010001KG12000850022210000000424400042440005504002238000000000000000000 
0100420005           BLOUNT COUNTY                 P O BOX 578              ONEONTA           AL35121    2056254102100001009BLOUNT                   0010002KG12000090002760000000061330006133001072000383000000000000000000 
0100450116           BREWTON CITY                  P O BOX 59               BREWTON           AL36427    2058678400100001053ESCAMBIA                 0000003KG12000030000910000000015360001536000136000112000000000000000000 
0100480006           BULLOCK COUNTY                P O DRAWER 231           UNION SPRINGS     AL36089    2057382860100001011BULLOCK                  0000003KG12000040000960000000019830001983000198000118000000000000000000 
0100510007           BUTLER COUNTY                 101 BUTLER CIR           GREENVILLE        AL36037    2053822665100001013BUTLER                   0000003KG12000080002380000000045910004591000410000215000000000000000000 
0100540008           CALHOUN COUNTY                P O BOX 2084             ANNISTON          AL36202    2052367641100001015CALHOUN                  0004502KG12000160004580000000110120011012001151000640000000000000000000 
0100570120           CARBON HILL CITY              P O BOX 370              CARBON HILL       AL35549    2059244331100001127WALKER                   0010002KG12000030000530000000010420001042000161000086000000000000000000 
0100600009           CHAMBERS COUNTY               BOX 408D                 LAFAYETTE         AL36862    2058649343100001017CHAMBERS                 0000003KG12000130002750000000051760005176000548000279000000000000000000 
0100630010           CHEROKEE COUNTY               130 E MAIN ST            CENTRE            AL35960    2059273362100001019CHEROKEE                 0000003KG12000070001900000000037930003793000844000252000000000000000000 
0100660011           CHILTON COUNTY                1705 LAY DAM RD          CLANTON           AL35045    2057553190100001021CHILTON                  0000003KG12000090003360000000061310006131001138000407000000000000000000 
0100690012           CHOCTAW COUNTY                914 RIDERWOOD DR         BUTLER            AL36904    2054593031100001023CHOCTAW                  0000003KG12000080001730000000032130003213000292000196000000000000000000 
0100720013           CLARKE COUNTY                 BOX 936                  GROVE HILL        AL36451    2052753255100001025CLARKE                   0000003KG12000090002270000000045270004527000483000285000000000000000000 
0100750014           CLAY COUNTY                   P O BOX 278              ASHLAND           AL36251    2053545414100001027CLAY                     0000003KG12000080001460000000026920002692000241000169000000000000000000 
0100780015           CLEBURNE COUNTY               406 VICKERY STREET       HEFLIN            AL36264    2054635624100001029CLEBURNE                 0000003KG12000060001230000000024010002401000425000143000000000000000000 
0100810016           COFFEE COUNTY                 P O DRAWER D             ELBA              AL36323    2058976300100001031COFFEE                   0000003KG12000040001010000000018260001826000321000142000000000000000000 
0100840017           COLBERT COUNTY                P O BOX 517              TUSCUMBIA         AL35674    2053868565100001033COLBERT                  0026502KG12000110002110000000036260003626000488000250000000000000000000 
0100870018           CONECUH COUNTY                P O BOX 548              EVERGREEN         AL36401    2055781752100001035CONECUH                  0000003KG12000070001430000000026530002653000325000159000000000000000000 
0100900019           COOSA COUNTY                  P O BOX 37               ROCKFORD          AL35136    2053774913100001037COOSA                    0000003KG12000050000970000000019820001982000271000102000000000000000000 
0100930020           COVINGTON COUNTY              BOX 460                  ANDALUSIA         AL36420    2052227571100001039COVINGTON                0000003KG12000060001620000000028640002864000554000178000000000000000000 
0100960021           CRENSHAW COUNTY               P O DRAWER 72            LUVERNE           AL36049    2053356519100001041CRENSHAW                 0000003KG12000040001490000000027150002715000263000164000000000000000000 
0100990125           CULLMAN CITY                  P O BOX 887              CULLMAN           AL35055    2057342233100001043CULLMAN                  0000003KG12000040001350000000026030002603000327000207000000000000000000 
0101020022           CULLMAN COUNTY                P O BOX 518              CULLMAN           AL35056    2057342933100001043CULLMAN                  0000003KG12000150004370000000089770008977000940000577000000000000000000 
0101050023           DALE COUNTY                   P O BOX 948              OZARK             AL36361    2057742355100001045DALE                     0021802KG12000060001610000000025960002596000370000174000000000000000000 
0101080126           DALEVILLE CITY                323 N DALEVILLE AVE      DALEVILLE         AL36322    2055982456100001045DALE                     0021802KG12000030000820000000014530001453000202000101000000000000000000 
0101110024           DALLAS COUNTY                 P O BOX 1056             SELMA             AL36702    2058753440100001047DALLAS                   0000003KG12000130002720000000050840005084000547000237000000000000000000 
0101140025           DEKALB COUNTY                 BOX 777                  FT PAYNE          AL35967    2058450414100001049DE KALB                  0000003KG12000130003920000000075640007564000849000504000000000000000000 
0101170127           DECATUR CITY                  302 4TH AVE NE           DECATUR           AL35601    2055523000100001103MORGAN                   0000003KG12000160005020000000084270008427001076000514000000000000000000 
0101200128           DEMOPOLIS CITY                P O BOX 700              DEMOPOLIS         AL36732    2052891670100001091MARENGO                  0000003KG12000030001140000000021700002170000183000135000000000000000000 
0101230130           DOTHAN CITY                   500 DUSY ST              DOTHAN            AL36301    2057931397100001069HOUSTON                  0021801KG12000160004890000000101180010118001310000636000000000000000000 
0101260131           ELBA CITY                     P O DRAWER F             ELBA              AL36323    2058972801100001031COFFEE                   0000003KG12000030000650000000012430001243000163000071000000000000000000 
0101290026           ELMORE COUNTY                 P O BOX 617              WETUMPKA          AL36092    2055671200100001051ELMORE                   0052402KG12000100003890000000078970007897001251000496000000000000000000 
0101320132           ENTERPRISE CITY               502 E WATTS ST           ENTERPRISE        AL36330    2053479531100001031COFFEE                   0000003KG12000100002810000000054270005427000527000391000000000000000000 
0101350027           ESCAMBIA COUNTY               P O BOX 307              BREWTON           AL36427    2058676251100001053ESCAMBIA                 0000003KG12000120002630000000054430005443000641000329000000000000000000 
0101380028           ETOWAH COUNTY                 109 COURTHOUSE 800 FORRESGADSDEN           AL35901    2055495348100001055ETOWAH                   0028802KG12000190004400000000088790008879001526000627000000000000000000 
0101410133           EUFAULA CITY                  420 SANFORD AVENUE       EUFAULA           AL36027    2056871100100001005BARBOUR                  0000003KG12000050001630000000029060002906000411000195000000000000000000 
0101440137           FAIRFIELD CITY                P O BOX 110              FAIRFIELD         AL35064    2057806137100001073JEFFERSON                0010002KG12000050001210000000022500002250000243000088000000000000000000 
0101470029           FAYETTE COUNTY                P O BOX 599              FAYETTE           AL35555    2059324611100001057FAYETTE                  0000003KG12000050001590000000030770003077000342000186000000000000000000 
0101500140           FLORALA CITY                  P O BOX 386              FLORALA           AL36442    2058583642100001039COVINGTON                0000003KG08000010000140000000002480000248000040000000000000000000000000 
0101530141           FLORENCE CITY                 541 RIVERVIEW DR         FLORENCE          AL35630    2057663234100001077LAUDERDALE               0026501KG12000090003000000000053110005311000762000388000000000000000000 
0101560143           FORT PAYNE CITY               P O BOX 1029             FORT PAYNE        AL35967    2058450915100001049DE KALB                  0000003KG12000040001230000000025780002578000351000142000000000000000000 
0101590030           FRANKLIN COUNTY               P O BOX 610              RUSSELLVILLE      AL35653    2053321360100001059FRANKLIN                 0000003KG12000060001740000000031500003150000476000178000000000000000000 
0101620144           GADSDEN CITY                  P O BOX 184              GADSDEN           AL35999    2055433512100001055ETOWAH                   0028801KG12000150003880000000065760006576001242000393000000000000000000 
0101640146           GENEVA CITY                   505 N CHEROKEE ST        GENEVA            AL36340    2056843256100001061GENEVA                   0000003KG12000020000730000000013580001358000189000068000000000000000000 
0101660031           GENEVA COUNTY                 P O BOX 250              GENEVA            AL36340    2056843686100001061GENEVA                   0000003KG12000060001580000000030010003001000391000223000000000000000000 
0101680032           GREENE COUNTY                 P O BOX 569              EUTAW             AL35462    2053723161100001063GREENE                   0000003KG12000050001380000000024140002414000204000142000000000000000000 
0101690154           GUNTERSVILLE CITY             P O BOX 129              GUNTERSVILLE      AL35976    2055823159100001095MARSHALL                 0000003KG12000040000930000000019810001981000255000128000000000000000000 
0101710033           HALE COUNTY                   P O BOX 360              GREENSBORO        AL36744    2056248836100001065HALE                     0000003KG12000070001810000000035560003556000548000202000000000000000000 
0101720155           HALEYVILLE CITY               1800 E 20TH ST           HALEYVILLE        AL35565    2054869231100001133WINSTON                  0000003KG12000030000930000000016690001669000241000109000000000000000000 
0101730156           HARTSELLE CITY                101 WEST COLLEGE STREET  HARTSELLE         AL35640    2057735419100001103MORGAN                   0000003KG12000040001450000000029890002989000350000218000000000000000000 
0101740034           HENRY COUNTY                  P O BOX 635              ABBEVILLE         AL36310    2055852206100001067HENRY                    0000003KG12000060001660000000030600003060000516000200000000000000000000 
0101760157           HOMEWOOD CITY                 P O BOX 59366            HOMEWOOD          AL35259    2058704203100001073JEFFERSON                0010002KG12000050001790000000028950002895000357000201000000000000000000 
0101770035           HOUSTON COUNTY                P O BOX 1688             DOTHAN            AL36302    2057928331100001069HOUSTON                  0021802KG12000080002980000000054120005412001006000298000000000000000000 
0101800159           HUNTSVILLE CITY               P O BOX 1256             HUNTSVILLE        AL35807    2055324640100001089MADISON                  0034401KG12000410015010000000249160024916003410001692000000000000000000 
0101830036           JACKSON COUNTY                COURTHOUSE-SUITE 20      SCOTTSBORO        AL35768    2055749200100001071JACKSON                  0000003KG12000170002910000000067210006721000663000352000000000000000000 
0101860162           JACKSONVILLE CITY             P O BOX 248              JACKSONVILLE      AL36265    2054352196100001015CALHOUN                  0004502KG12000020000860000000016490001649000186000138000000000000000000 
0101890163           JASPER CITY                   P O BOX 500              JASPER            AL35501    2053846021100001127WALKER                   0010002KG12000060001590000000029060002906000363000263000000000000000000 
0101920037           JEFFERSON COUNTY              A 400 COURTHOUSE         BIRMINGHAM        AL35263    2053255207100001073JEFFERSON                0010002KG12000610021190000000406270040627006765002667000000000000000000 
0101950038           LAMAR COUNTY                  P O BOX 469              VERNON            AL35592    2056957615100001075LAMAR                    0000003KG12000030001560000000032420003242000363000225000000000000000000 
0101980165           LANETT CITY                   P O BOX 329              LANETT            AL36863    2056441309100001017CHAMBERS                 0000003KG12000040000890000000016770001677000204000094000000000000000000 
0102010039           LAUDERDALE COUNTY             P O BOX 278              FLORENCE          AL35631    2057648321100001077LAUDERDALE               0026502KG12000130004230000000080010008001000902000537000000000000000000 
0102040040           LAWRENCE COUNTY               602 S MARKET ST          MOULTON           AL35650    2059741121100001079LAWRENCE                 0000003KG12000140003150000000063560006356000628000451000000000000000000 
0102070041           LEE COUNTY                    BOX 120                  OPELIKA           AL36803    2057459770100001081LEE                      0000003KG12000070002810000000057210005721000811000329000000000000000000 
0102100042           LIMESTONE COUNTY              300 S JEFFERSON ST       ATHENS            AL35611    2052325353100001083LIMESTONE                0034402KG12000110003580000000068750006875000668000384000000000000000000 
0102130168           LINDEN CITY                   P O BOX 480609           LINDEN            AL36748    2052958802100001091MARENGO                  0000003KG12000030000450000000008190000819000120000052000000000000000000 
0102160043           LOWNDES COUNTY                P O BOX 755              HAYNEVILLE        AL36040    2055482131100001085LOWNDES                  0000003KG12000080001530000000029650002965000684000179000000000000000000 
0102190044           MACON COUNTY                  P O BOX 90               TUSKEGEE          AL36083    2057271600100001087MACON                    0000003KG12000080002340000000045280004528000341000253000000000000000000 
0102220045           MADISON COUNTY                P O BOX 226              HUNTSVILLE        AL35804    2055323522100001089MADISON                  0034402KG12000170006340000000132650013265001635000660000000000000000000 
0102250046           MARENGO COUNTY                P O BOX 480339           LINDEN            AL36748    2052954123100001091MARENGO                  0000003KG12000040001320000000020480002048000156000157000000000000000000 
0102310047           MARION COUNTY                 P O BOX 189              HAMILTON          AL35570    2059213192100001093MARION                   0000003KG12000110002330000000042320004232000437000292000000000000000000 
0102350171           MIDFIELD CITY                 P O DRAWER 7889          MIDFIELD          AL35228    2059232262100001073JEFFERSON                0010002KG12000030000950000000018560001856000362000132000000000000000000 
0102370049           MOBILE COUNTY                 P O BOX 1327             MOBILE            AL36633    2056908250100001097MOBILE                   0051601KG12000860033370000000676200067620010584003675000000000000000000 
0102400050           MONROE COUNTY                 BOX 967                  MONROEVILLE       AL36461    2055752168100001099MONROE                   0000003KG12000110002860000000053530005353000475000313000000000000000000 
0102430051           MONTGOMERY COUNTY             P O BOX 1991             MONTGOMERY        AL36102    2052693031100001101MONTGOMERY               0052401KG12000550019240000000360040036004003817001767000000000000000000 
0102480052           MORGAN COUNTY                 1325 POINT MALLARD PKWY SDECATUR           AL35601    2053536442100001103MORGAN                   0000003KG12000130003940000000071040007104001283000380000000000000000000 
0102490175           MOUNTAIN BROOK CITY           P O BOX 130040           MT BROOK          AL35213    2058714608100001073JEFFERSON                0010002KG12000060002270000000031730003173000408000275000000000000000000 
0102520176           MUSCLE SHOALS CITY            P O BOX 2730             MUSCLE SHOALS     AL35662    2053837129100001033COLBERT                  0026502KG12000040000980000000019840001984000224000140000000000000000000 
0102550178           ONEONTA CITY                  RT 1 BOX 14              ONEONTA           AL35121    2056254106100001009BLOUNT                   0010002KG12000010000570000000010760001076000109000082000000000000000000 
0102580179           OPELIKA CITY                  P O BOX 2469             OPELIKA           AL36803    2057459700100001081LEE                      0000003KG12000080002410000000045960004596000782000282000000000000000000 
0102610180           OPP CITY                      P O BOX 428              OPP               AL36467    2054933173100001039COVINGTON                0000003KG12000030001010000000016740001674000328000140000000000000000000 
0102635181           OXFORD CITY                   310 SECOND ST E          OXFORD            AL36203    2058310272100001015CALHOUN                  0004502KG12000030001320000000025510002551000254000224000000000000000000 
0102640182           OZARK CITY                    P O BOX 788              OZARK             AL36361    2057745197100001045DALE                     0021802KG12000060002020000000037200003720000501000258000000000000000000 
0102650183           PELL CITY CITY                25-12TH ST S             PELL CITY         AL35125    2058844440100001115ST CLAIR                 0010002KG12000050001580000000032990003299000365000193000000000000000000 
0102670053           PERRY COUNTY                  P O BOX 900              MARION            AL36756    2056836528100001105PERRY                    0000003KG12000070001460000000026510002651000337000140000000000000000000 
0102700184           PHENIX CITY CITY              P O BOX 460              PHENIX CITY       AL36867    2052980534100001113RUSSELL                  0018002KG12000100002090000000046660004666000466000220000000000000000000 
0102730054           PICKENS COUNTY                P O BOX 32               CARROLLTON        AL35447    2053672080100001107PICKENS                  0000003KG12000090002090000000041090004109000458000227000000000000000000 
0102760185           PIEDMONT CITY                 P O BOX 232              PIEDMONT          AL36272    2054478831100001015CALHOUN                  0004502KG12000030000580000000012430001243000183000070000000000000000000 
0102790055           PIKE COUNTY                   109 E CHURCH ST          TROY              AL36081    2055661850100001109PIKE                     0000003KG12000070001570000000027660002766000554000149000000000000000000 
0102820056           RANDOLPH COUNTY               P O BOX 288              WEDOWEE           AL36278    2053574611100001111RANDOLPH                 0000003KG12000050001260000000023680002368000294000146000000000000000000 
0102850188           ROANOKE CITY                  BOX 312                  ROANOKE           AL36274    2058632628100001111RANDOLPH                 0000003KG12000030000740000000015190001519000165000099000000000000000000 
0102880057           RUSSELL COUNTY                P O BOX 400              PHENIX CITY       AL36868    2052988791100001113RUSSELL                  0018002KG08000060001380000000036790003679000389000175000000000000000000 
0102910189           RUSSELLVILLE CITY             P O BOX 880              RUSSELLVILLE      AL35653    2053323223100001059FRANKLIN                 0000003KG12000040001180000000021760002176000209000149000000000000000000 
0102940190           SCOTTSBORO CITY               906 S SCOTT ST           SCOTTSBORO        AL35768    2052594165100001071JACKSON                  0000003KG12000060001780000000030730003073000385000214000000000000000000 
0102970191           SELMA CITY                    P O BOX F                SELMA             AL36702    2058741600100001047DALLAS                   0000003KG12000110003040000000059420005942000761000275000000000000000000 
0103000192           SHEFFIELD CITY                300 W 6TH ST             SHEFFIELD         AL35660    2053830400100001033COLBERT                  0026502KG12000060000900000000015600001560000208000069000000000000000000 
0103030059           SHELBY COUNTY                 410 E COLLEGE ST         COLUMBIANA        AL35051    2056694101100001117SHELBY                   0010002KG12000230007530000000156290015629002763000881000000000000000000 
0103062058           ST CLAIR COUNTY               P O BOX 248              ASHVILLE          AL35953    2055945693100001115ST CLAIR                 0010002KG12000100002700000000056500005650000647000321000000000000000000 
0103090060           SUMTER COUNTY                 P O BOX 10               LIVINGSTON        AL35470    2056529605100001119SUMTER                   0000003KG12000060001730000000031020003102000540000193000000000000000000 
0103120193           SYLACAUGA CITY                P O DRAWER 1127          SYLACAUGA         AL35150    2052455711100001121TALLADEGA                0000003KG12000050001390000000024730002473000232000145000000000000000000 
0103150194           TALLADEGA CITY                P O BOX 946              TALLADEGA         AL35160    2053622203100001121TALLADEGA                0000003KG12000080002020000000039910003991000367000223000000000000000000 
0103180061           TALLADEGA COUNTY              P O BOX 887              TALLADEGA         AL35160    2053621401100001121TALLADEGA                0000003KG12000150004330000000083830008383001032000549000000000000000000 
0103210062           TALLAPOOSA COUNTY             COURTHOUSE               DADEVILLE         AL36853    2058254233100001123TALLAPOOSA               0000003KG12000060001860000000034760003476000416000221000000000000000000 
0103240195           TALLASSEE CITY                307 KING ST              TALLASSEE         AL36078    2052836864100001051ELMORE                   0052402KG12000040000740000000017000001700000157000094000000000000000000 
0103270197           TARRANT CITY                  1318 ALABAMA ST          TARRANT           AL35217    2058495843100001073JEFFERSON                0010002KG12000030000980000000015790001579000232000093000000000000000000 
0103300198           THOMASVILLE CITY              GATES DR                 THOMASVILLE       AL36784    2056369955100001025CLARKE                   0000003KG12000030000780000000015950001595000176000073000000000000000000 
0103330199           TROY CITY                     P O BOX 529              TROY              AL36081    2055663741100001109PIKE                     0000003KG12000050001120000000022350002235000269000145000000000000000000 
0103360200           TUSCALOOSA CITY               1100 21ST ST E           TUSCALOOSA        AL35405    2057593510100001125TUSCALOOSA               0086001KG12000190005810000000105730010573001574000546000000000000000000 
0103390063           TUSCALOOSA COUNTY             P O DRAWER 2568          TUSCALOOSA        AL35403    2057580411100001125TUSCALOOSA               0086002KG12000230007330000000140900014090002396000884000000000000000000 
0103420201           TUSCUMBIA CITY                P O BOX 149              TUSCUMBIA         AL35674    2053836045100001033COLBERT                  0026502KG12000040000830000000014120001412000227000108000000000000000000 
0103430202           VESTAVIA HILLS CITY           P O BOX 20826            BIRMINGHAM        AL35216    2058230295100001073JEFFERSON                0010002KG12000050002150000000037040003704000401000313000000000000000000 
0103450064           WALKER COUNTY                 P O BOX 311              JASPER            AL35502    2053870555100001127WALKER                   0010002KG12000210004030000000086540008654001317000348000000000000000000 
0103480065           WASHINGTON COUNTY             P O BOX 1359             CHATOM            AL36518    2058472401100001129WASHINGTON               0000003KG12000100002220000000038620003862000388000283000000000000000000 
0103510066           WILCOX COUNTY                 P O BOX 160              CAMDEN            AL36726    2056824716100001131WILCOX                   0000003KG12000100001500000000029790002979000383000123000000000000000000 
0103540204           WINFIELD CITY                 P O BOX 70               WINFIELD          AL35594    2054874255100001093MARION                   0000003KG12000020000710000000012860001286000153000092000000000000000000 
0103580067           WINSTON COUNTY                P O BOX 9                DOUBLE SPRINGS    AL35553    2054895018100001133WINSTON                  0000003KG12000050001450000000026900002690000363000195000000000000000000 
0200001031           LOWER KUSKOKWIM SCH DISTRICT  PO BOX 305               BETHEL            AK99559    90754348001   02050BETHEL                   0000003PK12000260002320000000029180002918N     000141N     N     000001 
0200002001           ADAK REGION SCHOOLS           ADAK NAVAL STATION BOX 34FPO SEATTLE       WA98791    9075923188100002010ALEUTIAN ISLANDS         0000003PK12000020000400000000006920000692N     000022N     N     000000 
0200003032           LOWER YUKON SCHOOL DISTRICT   BOX 32089                MT VILLAGE        AK99632    9075912411100002270WADE HAMPTON             0000003PK12000110001180000000013460001346N     000066N     N     000000 
0200004054           YUPIIT SCHOOL DISTRICT        PO BOX 100               AKIACHAK          AK99551    9078254428100002050BETHEL                   0000003KG12000060000320000000003200000320N     000015N     N     000000 
0200005055           KASHUNAMIUT SCHOOL DISTRICT   985 KSD WAY              CHEVAK            AK99563    9078587713100002270WADE HAMPTON             0000003KG12000020000170000000001590000159N     000007N     N     000000 
0200006098           MOUNT EDGECUMBE HIGH SCHOOL   1330 SEWARD AVE          SITKA             AK99835    90796622015   02220SITKA                    00000030912000010000130000000001890000189N     000051N     N     000000 
0200007056           ALEUTIANS EAST BOROUGH SCH DISPO BOX 429               SAND POINT        AK99661    90738352221   02010ALEUTIAN ISLANDS         0000003KG12000060000350000000003440000344      000010                  *
0200010004           ALEUTIAN REGION SCH DIST      201 E 56TH STE 225       ANCHORAGE         AK99518    9075622924100002010ALEUTIAN ISLANDS         0000003KG12000020000050000000000280000028N     000009N     N     000000 
0200020007           BERING STRAIT SCH DIST        PO BOX 225               UNALAKLEET        AK99684    9076243611100002180NOME                     0000003PK12000150001260000000014280001428N     000064N     N     000000 
0200030008           BRISTOL BAY BOROUGH SCH DIST  PO BOX 169               NAKNEK            AK99633    9072464225100002060BRISTOL BAY              0000003PK12000030000230000000002850000285N     000012N     N     000000 
0200050003           ALASKA GATEWAY SCH DIST       PO BOX 226               TOK               AK99780    9078835151100002240SOUTHEAST FAIRBANKS      0000003PK12000080000380000000004920000492N     000029N     N     000001 
0200060012           CORDOVA CITY SCH DIST         PO BOX 140               CORDOVA           AK99574    9074243265100002080VALDEZ-CORDOVA           0000003PK12000020000340000000004410000441N     000019N     N     000000 
0200070011           COPPER RIVER REAA SCH DIST    PO BOX 108               GLENNALLEN        AK99588    9078223234100002260VALDEZ-CORDOVA           0000003PK12000110000430000000005810000581N     000043N     N     000000 
0200090013           CRAIG CITY SCH DIST           PO BOX 800               CRAIG             AK99921    9078263273100002200PR WALES-OUTER KETCHICAN 0000003KG12000020000110000000002560000256N     000010N     N     000000 
0200100014           DELTA GREELY SCH DIST         PO BOX 527               DELTA JUNCT       AK99737    9078954658100002090FAIRBANKS NORTH STAR     0000003PK12000050000540000000009050000905N     000054N     N     000000 
0200120015           DILLINGHAM CITY SCH DIST      PO BOX 170               DILLINGHAM        AK99576    9078425223100002070DILLINGHAM               0000003PK12000020000330000000004640000464N     000027N     N     000001 
0200130017           GALENA CITY SCH DIST          PO BOX 299               GALENA            AK99741    9076561205100002290YUKON-KOYUKUK            0000003KG12000020000190000000001350000135N     000007N     N     000000 
0200150025           KETCHIKAN GATEWAY BOR SCH DISTPOUCH Z                  KETCHIKAN         AK99901    9072252118100002130KETCHIKAN GATEWAY        0000003PK12000080001450000000027570002757N     000175N     N     000000 
0200180005           ANCHORAGE SCH DIST            PO BOX 196614            ANCHORAGE         AK99519    9073339561100002020ANCHORAGE                0003802PK12000820020260000000409240040924N     002195N     N     000000 
0200210022           JUNEAU BOROUGH SCHOOLS        10014 CRAZY HORSE DR     JUNEAU            AK99801    9075862303100002110JUNEAU                   0000003PK12000080002690000000048790004879N     000244N     N     000000 
0200240042           SITKA BOROUGH SCH DIST        PO BOX 179               SITKA             AK99835    9077478622100002220SITKA                    0000003PK12000050000990000000017680001768N     000084N     N     000000 
0200270018           HAINES BOROUGH SCH DIST       PO BOX 1289              HAINES            AK99827    9077662644100002100HAINES                   0000003KG12000060000300000000003990000399N     000019N     N     000000 
0200300019           HOONAH CITY SCH DIST          PO BOX 157               HOONAH            AK99829    9079453611100002230SKAGWAY-YAKUTAT-ANGOON   0000003PK12000030000440000000002520000252N     000018N     N     000000 
0200330020           HYDABURG CITY SCH DIST        PO BOX 109               HYDABURG          AK99922    9072853491100002200PR WALES-OUTER KETCHICAN 0000003PK12000020000110000000000980000098N     000004N     N     000000 
0200360023           KAKE CITY SCH DIST            PO BOX 450               KAKE              AK99830    9077853741100002280WRANGELL-PETERSBURG      0000003KG12000020000160000000001670000167N     000016N     N     000000 
0200390024           KENAI PENINSULA BOROUGH SCHS  148 N BINKLEY ST         SOLDOTNA          AK99669    9072625846100002120KENAI PENINSULA          0000003PK12000350005290000000087320008732N     000506N     N     000003 
0200450027           KLAWOCK CITY SCH DIST         PO BOX 9                 KLAWOCK           AK99925    9077552220100002200PR WALES-OUTER KETCHICAN 0000003KG12000020000160000000002090000209N     000015N     N     000000 
0200480028           KODIAK ISLAND BOROUGH SCH DI  722 MILL BAY RD          KODIAK            AK99615    9074863131100002150KODIAK ISLAND            0000003PK12000140001370000000024360002436N     000136N     N     000000 
0200485030           LAKE AND PENINSULA SCH DIST   PO BOX 498               KING SALMON       AK99613    9072464280100002010ALEUTIAN ISLANDS         0000003KG12000160000540000000004040000404N     000012N     N     000000 
0200510033           MATANUSKA-SUSITNA BOR SCHS    PO BOX 1688              PALMER            AK99645    9077469200100002170MATANUSKA-SUSITNA        0000003PK12000230004700000000092250009225N     000438N     N     000003 
0200520021           IDITAROD AREA SCH DIST        PO BOX 90                MCGRATH           AK99627    9075243033100002290YUKON-KOYUKUK            0000003PK12000100000350000000004690000469N     000013N     N     000000 
0200525006           ANNETTE ISLAND SCH DIST       PO BOX 7                 METLAKATLA        AK99926    9078866332100002190PR WALES-OUTER KETCHICAN 0000003PK12000020000350000000004000000400N     000024N     N     000000 
0200540034           NENANA CITY SCH DIST          PO BOX 10                NENANA            AK99760    9078325464100002290YUKON-KOYUKUK            0000003KG12000020000150000000001860000186N     000011N     N     000000 
0200570035           NOME CITY SCH DIST            PO BOX 131               NOME              AK99762    9074432231100002180NOME                     0000003KG12000030000460000000007510000751N     000042N     N     000000 
0200600016           FAIRBANKS NORTH STAR BOR S D  PO BOX 1250              FAIRBANKS         AK99707    9074522000100002090FAIRBANKS NORTH STAR     0000003PK12000300007590000000141910014191N     000655N     N     000000 
0200610036           NORTH SLOPE BOROUGH SCH DIST  PO BOX 169               BARROW            AK99723    9078525311100002040NORTH SLOPE              0000003PK12000100001350000000015940001594N     000063N     N     000000 
0200625037           NORTHWEST ARCTIC SCH DIST     PO BOX 51                KOTZEBUE          AK99752    9074423472100002140N.W. ARTIC BOROUGH       0000003PK12000210001290000000017760001776N     000070N     N     000001 
0200630038           PELICAN CITY SCH DIST         BOX 90                   PELICAN           AK99832    9077352236100002230SKAGWAY-YAKUTAT-ANGOON   0000003PK12000010000030000000000540000054N     000001N     N     000000 
0200660039           PETERSBURG CITY SCH DIST      PO BOX 289               PETERSBURG        AK99833    9077724271100002280WRANGELL-PETERSBURG      0000003KG12000020000340000000006890000689N     000047N     N     000000 
0200670040           PRIBILOF ISLAND SCH DIST      POUCH 5                  ST PAUL ISLAND    AK99660    9075462222100002010ALEUTIAN ISLANDS         0000003PK12000040000150000000001520000152N     000000N     N     000000 
0200680046           SAINT MARYS CITY SCH DIST     PO BOX 171               ST MARYS          AK99658    9074382311100002270WADE HAMPTON             0000003PK12000020000140000000001400000140N     000008N     N     000000 
0200690043           SKAGWAY CITY SCH DIST         PO BOX 497               SKAGWAY           AK99840    9079832960100002230SKAGWAY-YAKUTAT-ANGOON   0000003PK12000010000130000000001580000158N     000008N     N     000000 
0200700044           SOUTHEAST ISLAND SCH DIST     PO BOX 8340              KETCHIKAN         AK99901    9072259658100002200PR WALES-OUTER KETCHICAN 0000003KG12000200000470000000005620000562N     000017N     N     000000 
0200710045           SOUTHWEST REGION SCH DIST     PO BOX 90                DILLINGHAM        AK99576    9078425288100002060BRISTOL BAY              0000003PK12000090000440000000005360000536N     000012N     N     000000 
0200715053           TANANA CITY SCHOOL DIST       PO BOX 89                TANANA            AK99777    9073667203100002290YUKON-KOYUKUK            0000003PK12000010000090000000000900000090N     000013N     N     000000 
0200720047           UNALASKA CITY SCH DIST        POUCH 260                UNALASKA          AK99685    9075811222100002010ALEUTIAN ISLANDS         0000003PK12000020000160000000002040000204N     000010N     N     000000 
0200730009           CHATHAM REGION SCHOOLS        PO BOX 109               ANGOON            AK99820    9077883682100002231SKAGWAY-YAKUTAT-ANGOON   0000003PK12000080000310000000003580000358N     000008N     N     000000 
0200760029           KUSPUK SCHOOL DISTRICT        PO BOX 49                ANIAK             AK99557    9076754250100002050BETHEL                   0000003PK12000120000420000000004110000411N     000019N     N     000000 
0200770002           RAIL BELT SCHOOL DISTRICT     DRAWER 280               HEALY             AK99743    9076832278100002290YUKON-KOYUKUK            0000003PK12000040000280000000003460000346N     000014N     N     000000 
0200775051           YUKON FLATS SCH DIST          PO BOX 359               FORT YUKON        AK99740    9076622515100002250UPPER YUKON              0000003PK12000130000370000000004050000405N     000005N     N     000000 
0200780048           VALDEZ CITY SCH DIST          PO BOX 398               VALDEZ            AK99686    9078354357100002260VALDEZ-CORDOVA           0000003PK12000040000560000000008290000829N     000051N     N     000000 
0200800010           CHUGACH SCH DIST              201 E 56TH AVE STE 210   ANCHORAGE         AK99518    9075613666100002260VALDEZ-CORDOVA           0000003PK12000060000160000000001120000112N     000003N     N     000000 
0200810049           WRANGELL CITY SCH DIST        PO BOX 2319              WRANGELL          AK99929    9078742347100002280WRANGELL-PETERSBURG      0000003KG12000020000330000000005020000502N     000034N     N     000000 
0200840050           YAKUTAT CITY SCH DIST         PO BOX 427               YAKUTAT           AK99689    9077843317100002230SKAGWAY-YAKUTAT-ANGOON   0000003KG12000020000140000000001320000132N     000016N     N     000000 
0200862052           YUKON KOYUKUK SCH DIST        PO BOX 309               NENANA            AK99760    9078325594100002290YUKON-KOYUKUK            0000003KG12000110000500000000005300000530N     000028N     N     000000 
030003061            DOE-TERR. OF AMERICAN SAMOA   PO BOX DOE               PAGO PAGO         AS96799    6846335237500003003                         0000003PK12000300006510000700106810010751000404000569000000000016000002 
0400001070293        CAVE CREEK UNIF DIST #93      P O BOX 426              CAVE CREEK        AZ85331    6024889816100004013MARICOPA                 0062002PK12000040000810000000014760001476000257000085000000             
0400003130251        CHINO VALLEY UNIF DIST 51     P O BOX 225              CHINO VALLEY      AZ86323    6026362458100004025YAVAPAI                  0000003PK10000030000610000250012290001254000155000000000000             
0400004130403        CLARKDALE-JEROME ELEM DIST 3  P. O. BOX 248            CLARKDALE         AZ86324    6026345035100004025YAVAPAI                  0000003KG08000010000200000140003640000378000021000000000000             
0400005150430        SALOME CONS EL DIST 30        P O BOX 339              SALOME            AZ85348    6028593339100004012LA PAZ                   0000003KG08000010000070000000001110000111000015000000000000             
0400007N/A           SHIPROCK AGENCY, B I A                                 SHIPROCK          NM87420    602       1   04001APACHE                   00000030000           0000000000000000000000000000000000000             
0400008N/A           HOPI AGENCY, B I A                                     KEAMS CANYON      AZ86034    602       1   04017NAVAJO                   00000030000           0000000000000000000000000000000000000             
0400009N/A           PIMA AGENCY, B I A                                     SACATON           AZ85247    602       1   04021PINAL                    00000030000           0000000000000000000000000000000000000             
0400010N/A           PAPAGO AGENCY, B I A                                   SELLS             AZ85634    602       1   04019PIMA                     00000030000           0000000000000000000000000000000000000             
0400011N/A           FORT APACHE AGENCY, B I A                              WHITERIVER        AZ85941    602       1   04017NAVAJO                   00000030000           0000000000000000000000000000000000000             
0400012N/A           PHOENIX AREA OFFICE, B I A                             PHOENIX           AZ85011    602       1   04013MARICOPA                 00620010000           0000000000000000000000000000000000000             
0400013N/A           WESTERN NAVAJO AGENCY, B I A                           TUBA CITY         AZ86045    602       1   04005COCONINO                 00000030000           0000000000000000000000000000000000000             
0400014N/A           CHINLE AGENCY, B I A                                   CHINLE            AZ86503    602       1   04001APACHE                   00000030000           0000000000000000000000000000000000000             
0400021080214        COLORADO CITY UNIFIED DIST    P.O. BOX 309             COLORADO CITY     AZ86021    6028752288100004015MOHAVE                   0000003PK12000020000510000000009960000996000117000049000000             
0400022010309        VERNON SCHOOL DISTRICT NO 9   P O BOX 189              VERNON            AZ85940    6025375463100004001APACHE                   0000003KG05000010000030000000000430000043000003000000000000             
0400023090204        PINON UNIFIED DIST 4          P O BOX 839              PINON             AZ86510    6027253450100004017NAVAJO                   0000003KG09000020000450000000008060000806000078000000000000             
0400024074201        MARICOPA SS - IGA             N                        BUCKEYE           AZ85326    6022572843400004013MARICOPA                 00000030000           0000000000000000000000000000000000000             
0400026090206        HEBER-OVERGAARD UNIF SCH DIST P.O. BOX 547             HEBER             AZ85928    60253542381   04017NAVAJO                   0000003PK12000030000270000000004420000442000053000000000000             
0400082080502        COLORADO RIVER UN HS          1414 HANCOCK RD          RIVIERA           AZ86442    6023916   1   04015MOHAVE                   00000030912000010000570000000012260001226000113000000000000            *
0400450070516        AGUA FRIA UNION HS DIST 216   530 E RILEY DR           AVONDALE          AZ85323    6029324250100004013MARICOPA                 00620020912000010000790000000014690001469000136000308000000             
0400480070363        AGUILA SCHOOL DISTRICT 63     PO BOX 218               AGUILA            AZ85320    6026852223100004013MARICOPA                 0062002KG08000010000080000000001230000123000025000000000000             
0400520100215        AJO UNIFIED DIST 15           PO BOX 68                AJO               AZ85321    6023875619100004019PIMA                     0085202KG12000020000380000000006020000602000037000056000000             
0400600070468        ALHAMBRA SCHOOL DISTRICT 68   3001 W. HAZELWOOD        PHOENIX           AZ85017    6022465100100004013MARICOPA                 0062002KG08000100004020000000076590007659000792000000000000             
0400630010307        ALPINE ELEMENTARY DIST 7      P O BOX 170              ALPINE            AZ85920    6023394570100004001APACHE                   0000003KG08000010000040000000000570000057000004000000000000             
0400680100210        AMPHITHEATER UNIFIED DIST #10 701 W WETMORE            TUCSON            AZ85705    6028875500100004019PIMA                     0085202PK12000160006350002350132830013518001924001009000000             
0400720140550        ANTELOPE UNION HS DIST 50     ROUTE 1 BOX 26           WELLTON           AZ85356    6027853344100004027YUMA                     00000030912000010000180000000003270000327000013000062000000             
0400750020342        APACHE SCHOOL DISTRICT #42    P O DRAWER 1119          DOUGLAS           AZ85608    6025582364100004003COCHISE                  0000003UGUG000010000020000210000000000021000005000000000000             
0400790110243        APACHE JUNCTION UNIF DIST 43  P. O. BOX 879            APACHE JUNCTION   AZ85217    6029821110100004021PINAL                    0000003PK12000060001880000000038300003830000523000162000000             
0400840070447        ARLINGTON SCHOOL DISTRICT 47  STAR ROUTE 3 BOX 125     ARLINGTON         AZ85322    6023862031100004013MARICOPA                 0062002KG08000020000080000000001150000115000026000000000000             
0400870020453        ASH CREEK SCHOOL DISTRICT #53 HCR BOX 260              PEARCE            AZ85625    6028243340100004003COCHISE                  0000003KG08000010000040000000000460000046000002000000000000             
0400910130231        ASH FORK UNIF DIST 31         PO BOX 247               ASH FORK          AZ86320    6026372561100004025YAVAPAI                  0000003PK12000020000190000000001810000181000041000005000000             
0400960070444        AVONDALE SCHOOL DISTRICT 44   235 W WESTERN AVE        AVONDALE          AZ85323    6029320840100004013MARICOPA                 0062002KG08000040001340000830025340002617000317000000000000             
0401000130220        BAGDAD UNIFIED DIST 20        PO BOX 427               BAGDAD            AZ86321    6026332201100004025YAVAPAI                  0000003PK12000020000360000010005780000579000139000040000000             
0401050070431        BALSZ SCHOOL DISTRICT 31      4309 E. BELLEVIEW ST.    PHOENIX           AZ85008    6022754457100004013MARICOPA                 0062002KG08000040001100000760020600002136000205000000000000             
0401080130326        BEAVER CREEK DIST #26         PO BOX 8                 RIMROCK           AZ86335    6025674631100004025YAVAPAI                  0000003KG08000010000120000000002080000208000060000000000000             
0401110020409        BENSON SCHOOL DISTRICT #9     P O BOX 2030             BENSON            AZ85602    6022214   100004003COCHISE                  0000003KG08000020000360000060007840000790000092000000000000             
0401140020509        BENSON UHS DISTRICT #9        P O BOX 2030             BENSON            AZ85602    6025862214100004003COCHISE                  00000030912000010000250000000003650000365000030000069000000             
0401160150576        BICENTENNIAL UNION H S DIST   P O BOX 519              SALOME            AZ85348    6028593453100004012LA PAZ                   00000030912000010000100000000001250000125000021000023000000             
0401180020202        BISBEE UNIFIED DIST 2         DRAWER G                 BISBEE            AZ85603    6024325381100004003COCHISE                  0000003KG12000030000790000050014160001421000104000107000000             
0401230060322        BLUE SCHOOL DISTRICT 22                                BLUE              AZ85922    6023394346100004011GREENLEE                 00000030107000010000010000000000080000008000000000000000000             
0401260050316        BONITA SCHOOL DISTRICT 16     SUNSET RTE BOX 1         WILLCOX           AZ85643    6028283363100004009GRAHAM                   0000003KG08000010000060000000000780000078000010000000000000             
0401290150426        BOUSE ELEMENTARY DISTRICT 26  P O BOX S                BOUSE             AZ85325    6028512213100004012LA PAZ                   0000003KG08000010000020000000000310000031000000000000000000             
0401330020214        BOWIE UNIFIED DIST 14         PO BOX 157               BOWIE             AZ85605    6028472545100004003COCHISE                  0000003KG12000020000130000000001140000114000003000006000000             
0401380070433        BUCKEYE ELEM SCHOOL DIST 33   210 S SIXTH ST           BUCKEYE           AZ85326    6023864487100004013MARICOPA                 0062002KG08000010000510000020010920001094000159000000000000             
0401410070501        BUCKEYE UNION HS DIST 201     902 EASON AVE            BUCKEYE           AZ85326    6023864423100004013MARICOPA                 00620020912000010000410000000007970000797000054000135000000             
0401460020268        SIERRA VISTA UNIF DISTRICT    3555 FRY BOULEVARD       SIERRA VISTA      AZ85635    6024584391100004003COCHISE                  0000003KG12000080003280000200063340006354000529000468000000             
0401500080415        BULLHEAD CITY SCHOOL DIST #15 1004 E HANCOCK RD        BULLHEAD CITY     AZ86442    6027583961100004015MOHAVE                   0000003KG08000030001020000070020910002098000240000000000000             
0401600130228        CAMP VERDE UNIFIED DIST 28    P O BOX 728              CAMP VERDE        AZ86322    6025673382100004025YAVAPAI                  0000003KG12000020000620000050012410001246000132000065000000             
0401650130350        CANON SCHOOL DISTRICT #50     PO BOX 89                BLACK CANYON      AZ85324    6023745588100004025YAVAPAI                  0000003KG08000020000130000140001560000170000028000000000000             
0401680070483        CARTWRIGHT SCHOOL DISTRICT 83 3401 N 67TH AVE          PHOENIX           AZ85033    6028462800100004013MARICOPA                 0062002PK08000170006660001070138480013955001585000000000000             
0401710110404        CASA GRANDE SCHOOL DIST 4     1460 NORTH PINAL AVE.    CASA GRANDE       AZ85222    6028362111100004021PINAL                    0000003KG08000080002340000070044320004439000399000000000000             
0401740110502        CASA GRANDE UHS DIST 82       616 E 10TH ST            CASA GRANDE       AZ85222    6028368532100004021PINAL                    00000030912000020001020000000018250001825000178000344000000             
0401760100216        CATALINA FOOTHILLS UD #16     2101 E RIVER RD          TUCSON            AZ85718    6022996446100004019PIMA                     0085202KG08000040001300000020022860002288000125000000000000             
0401810090225        CEDAR UNIF DIST 25            P O BOX 367              KEAMS CANYON      AZ86034    6027382334100004017NAVAJO                   0000003PK09000020000360000000005380000538000133000000000000             
0401830130314        CHAMPIE SCHOOL DISTRICT 14    STAR ROUTE               MORRISTOWN        AZ85342    6020000000100004025YAVAPAI                  0000003000000001      0000000000000000000000000000000000000             
0401870070280        CHANDLER UNIFIED DIST 80      1525 WEST FRYE ROAD      CHANDLER          AZ85224    6027867000100004013MARICOPA                 0062002PK12000150005340000000105110010511001573000452000000             
0401920030305        CHEVELON BUTTE SCHOOL DIST 5  P O BOX 1511             FOREST LAKES      AZ85931    6024871   100004005COCONINO                 00000030000           0000000000000000000000000000000000000             
0401940010224        CHINLE UNIF SCH DIST 24       P O BOX 587              CHINLE            AZ86503    6026743481100004001APACHE                   0000003KG12000060002060000060037620003768000254000199000000             
0402010080411        CHLORIDE SCHOOL DISTRICT #11  PO BOX 248               DOLAN SPRINGS     AZ86441    6027673350100004015MOHAVE                   0000003KG08000010000120000040001510000155000026000000000000             
0402110060203        CLIFTON UNIFIED DISTRICT 3    PO BOX 1567              CLIFTON           AZ85533    6028652752100004011GREENLEE                 0000003KG12000020000360000000004690000469000050000033000000             
0402130020326        COCHISE SCHOOL DISTRICT #26   P O BOX 1088             COCHISE           AZ85606    6023842540100004003COCHISE                  0000003KG08000010000060000000000490000049000006000000000000             
0402190010306        CONCHO ELEMENTARY DISTRICT 6  P O BOX 198              CONCHO            AZ85924    6023374665100004001APACHE                   0000003KG08000010000110000000001830000183000045000000000000             
0402220130317        CONGRESS SCHOOL DIST 17       PO BOX 68                CONGRESS          AZ85332    6024276238100004025YAVAPAI                  0000003000000001      0000000000000000000000000000000000000             
0402250100339        CONTINENTAL SCHOOL DIST 39    H C BOX 5550             AMADO             AZ85629    6026254581100004019PIMA                     0085202KG08000010000110000000001860000186000033000000000000             
0402320110221        COOLIDGE UNIFIED DIST 21      520 W LINDBERGH          COOLIDGE          AZ85228    6029349   100004021PINAL                    0000003KG12000040001450000680024800002548000391000104000000             
0402370130406        COTTONWOOD OAK CREEK SCH DIST P. O. BOX 57             COTTONWOOD        AZ86326    6026342288100004025YAVAPAI                  0000003KG08000050001300000180026410002659000364000000000000             
0402400140413        CRANE SCHOOL DISTRICT 13      4250 W 16TH ST           YUMA              AZ85364    6027825183100004027YUMA                     0000003PK08000060002350000710044220004493000482000000000000             
0402430070414        CREIGHTON SCHOOL DISTRICT 14  2702 E FLOWER ST         PHOENIX           AZ85016    6026000   100004013MARICOPA                 0062002KG08000070002450000650048080004873000552000000000000             
0402460130341        CROWN KING SCHOOL DIST 41     P O BOX 188              CROWN KING        AZ86343    6026325207100004025YAVAPAI                  00000030107000010000010000000000120000012000000000000000000             
0402480050199        DAN HINTON SCHOOL             150 EAST FOURTH SOUTH    PIMA              AZ85543    6024852759100004009GRAHAM                   0000003UGUG000010000040000280000000000028000027000000000000             
0402490020345        DOUBLE ADOBE SCHOOL DIST #45  ROUTE 1 BOX 72           MCNEAL            AZ85617    6023643041100004003COCHISE                  0000003KG06000010000040000000000500000050000014000000000000             
0402530020227        DOUGLAS UNIFIED DIST 27       P O BOX 1237             DOUGLAS           AZ85607    6023642447100004003COCHISE                  0000003KG12000110002060000240042760004300000545000198000000             
0402600060202        DUNCAN UNIFIED DIST 2         PO BOX Q                 DUNCAN            AZ85534    6023592472100004011GREENLEE                 0000003KG12000030000380000350006250000660000057000040000000             
0402690070289        DYSART UNIFIED DISTRICT 89    ROUTE 1 BOX 703          PEORIA            AZ85345    6029777281100004013MARICOPA                 0062002PK12000060002080000000031630003163000315000123000000             
0402710060345        EAGLE SCHOOL DISTRICT #45     P O BOX 631              CLIFTON           AZ85533    6020000000100004011GREENLEE                 0000003KG08000010000010000000000140000014000005000000000000             
0402740110100        MARY C O BRIEN ACCOM #90      RURAL BRANCH BOX 3125    CASA GRANDE       AZ85222    6027235371100004021PINAL                    0000003KG06000010000030000000000610000061000000000000000000             
0402760020412        ELFRIDA SCHOOL DISTRICT #12   P O BOX 328              ELFRIDA           AZ85610    6026423428100004003COCHISE                  0000003KG08000010000110000000001840000184000021000000000000             
0402790110411        ELOY SCHOOL DISTRICT 11       1011 N SUNSHINE BLVD     ELOY              AZ85231    6024667301100004021PINAL                    0000003KG08000040000750000010012250001226000140000000000000             
0402820100337        EMPIRE SCHOOL DISTRICT 37     BOX 12A                  ELGIN             AZ85611    6024561722100004019PIMA                     00852020000           0000000000000000000000000000000000000             
0402840074204        FAR WEST DEVELOPMENT CTR      19956 W MCDOWELL         BUCKEYE           AZ85326    602       400004013MARICOPA                 0000003UGUG000010000040000260000000000026000024000000000000             
0402860030201        FLAGSTAFF UNIFIED DIST 1      3285 E SPARROW AVE       FLAGSTAFF         AZ86004    6026000   100004005COCONINO                 0000003KG12000180005330002770110300011307001489000698000000             
0402920110201        FLORENCE UNIF SCH DIST #1     PO BOX 829               FLORENCE          AZ85232    6028685812100004021PINAL                    0000003KG12000030000570000000010430001043000115000059000000             
0403010100208        FLOWING WELLS UNIFIED DIST #8 1556 W PRINCE RD         TUCSON            AZ85705    6028871100100004019PIMA                     0085202PK12000070002340000840049710005055000590000332000000             
0403030020381        FORREST SCHOOL DISTRICT #81   RT 1 BOX 134             DOUGLAS           AZ85607    6023644029100004003COCHISE                  00000030000           0000000000000000000000000000000000000             
0403040070298        FOUNTAIN HILL UNIF SCH DIST   14605 N DEL CAMBRE       FOUNTAIN HILL     AZ85268    6020690   100004013MARICOPA                 0062002KG08000020000510000030009620000965000176000000000000             
0403060070445        FOWLER SCHOOL DISTRICT 45     6707 W. VAN BUREN        PHOENIX           AZ85031    6022573279100004013MARICOPA                 0062002KG08000020000640000440011490001193000213000000000000             
0403080030206        FREDONIA MOCCASIN UNIFIED D-6 PO BOX 247               FREDONIA          AZ86022    6026437333100004005COCONINO                 0000003KG12000030000270000000004440000444000035000030000000             
0403150020100        FT. HUACHUCA ACCOMMODATION    P O DRAWER Q             FT HUACHUCA       AZ85613    6024585082100004003COCHISE                  0000003KG08000030000810000100015550001565000187000000000000             
0403200050207        FT THOMAS UNIFIED DIST 7      PO BOX 28                FT THOMAS         AZ85536    6024852427100004009GRAHAM                   0000003KG12000020000330000000004370000437000080000031000000             
0403240140432        GADSDEN SCHOOL DISTRICT 32    P.O. BOX 128             GADSDEN           AZ85336    6026272882100004027YUMA                     0000003KG08000020000490000000010530001053000048000000000000             
0403290010220        GANADO UNIF SCH DIST 20                                GANADO            AZ86505    6027553436100004001APACHE                   0000003KG12000040001150000410017390001780000121000092000000             
0403310070224        GILA BEND UNIFIED DIST 24     PO BOX V                 GILA BEND         AZ85337    6026832225100004013MARICOPA                 0062002KG12000020000400000030006450000648000083000042000000             
0403320040199        GILA COUNTY SPECIAL SERVICES  1400 E ASH               GLOBE             AZ85501    6024253231100004007GILA                     0000003000000001      0000290000000000029000000000000000000             
0403400070241        GILBERT UNIFIED DIST 41       140 S GILBERT RD         GILBERT           AZ85234    6028920545100004013MARICOPA                 0062002PK12000110004630000030098710009874002086000412000000             
0403420070440        GLENDALE SCHOOL DISTRICT 40   5734 W GLENDALE AVE      GLENDALE          AZ85301    6028428100100004013MARICOPA                 0062002KG08000110004290000280086770008705000764000000000000             
0403450070505        GLENDALE UNION HS DIST 205    7650 N 43RD AVE          GLENDALE          AZ85301    6024356000100004013MARICOPA                 00620020912000090005740000380125670012605000678003129000000             
0403500040201        GLOBE UNIFIED SCHOOL DIST #1  501 ASH ST               GLOBE             AZ85501    6024253211100004007GILA                     0000003KG12000040001090000000019920001992000177000163000000             
0403530074101        GREATER PHOENIX CURRICULUM                             PHOENIX           AZ85004    602       700004013MARICOPA                 00000030000           0000000000000000000000000000000000000             
0403550030204        GRAND CANYON UNIFIED DIST 4   PO BOX 519               GRAND CANYON      AZ86023    6026382461100004005COCONINO                 0000003KG12000020000180000000002130000213000012000016000000             
0403580060199        GREENLEE COUNTY ACCOM SCHOOL  PO BOX 1595              CLIFTON           AZ85533    6028652433100004011GREENLEE                 0000003UGUG00001      0000010000000000001000005000000000000             
0403660080403        HACKBERRY SCHOOL DISTRICT #3  PO BOX 22                HACKBERRY         AZ86411    6027692325100004015MOHAVE                   0000003UGUG000010000010000120000000000012000000000000000000             
0403730040241        HAYDEN-WINKELMAN UNIFIED      P O BOX 409, THORNE AVE  WINKELMAN         AZ85292    6023567876100004007GILA                     0000003KG12000040000300000000005210000521000092000036000000             
0403780070360        HIGLEY SCHOOL DISTRICT 60     15202 S 170TH ST         HIGLEY            AZ85236    6029882571100004013MARICOPA                 0062002KG08000010000100000000001940000194000049000000000000             
0403820090203        HOLBROOK UNIFIED DIST 3       P O BOX 640              HOLBROOK          AZ86025    6025246144100004017NAVAJO                   0000003KG12000040001020000090017900001799000214000157000000             
0403860070199        HORSE MESA ACCOM SCHOOL #509  11 COOLIDGE ST           WILLIAMS AFB      AZ85225    6028921102100004013MARICOPA                 0062002PK1200005      0000600001490000209000123000003000000             
0403870130222        HUMBOLDT UNIFIED DIST 22      P. O. DRAWER A           DEWEY             AZ86327    6027729200100004025YAVAPAI                  0000003PK12000050001290000500025390002589000259000105000000             
0403900140416        HYDER SCHOOL DISTRICT 16      P. O. BOX 1              DATELAND          AZ85333    6024542242100004027YUMA                     0000003KG08000010000120000000002060000206000013000000000000             
0403950100240        INDIAN OASIS-B UNIF DIST #40  P O BOX 248              SELLS             AZ85634    6023832601100004019PIMA                     0085202KG12000040000710000000010650001065000185000034000000             
0403960070405        ISAAC SCHOOL DISTRICT 5       1701 N 35TH AVE          PHOENIX           AZ85009    6024844700100004013MARICOPA                 0062002PK08000060002420000660055310005597000404000000000000             
0403990110344        J. O. COMBS SCHOOL DIST 44    301 E COMBS RD           QUEEN CREEK       AZ85242    6029873145100004021PINAL                    0000003KG08000010000120000000002590000259000025000000000000             
0404010090202        JOSEPH CITY UNIFIED DIST 2    BOX 8                    JOSEPH CITY       AZ86032    6022883307100004017NAVAJO                   0000003KG12000020000270000000004250000425000083000023000000             
0404060090227        KAYENTA UNIFIED DISTRICT 27   P O BOX 337              KAYENTA           AZ86033    6026973251100004017NAVAJO                   0000003PK12000040001440000000023880002388000163000119000000             
0404140080404        KINGMAN SCHOOL DISTRICT #4    3033 MCDONALD            KINGMAN           AZ86401    6027535678100004015MOHAVE                   0000003PK08000050001920000000040050004005000628000000000000             
0404170130323        KIRKLAND SCHOOL DISTRICT 23   P O BOX 150              KIRKLAND          AZ86332    6024423258100004025YAVAPAI                  0000003KG06000010000030000000000330000033000006000000000000             
0404200050309        KLONDYKE SCHOOL DISTRICT 9    KLONDYKE STATION         KLONDYKE          AZ85643    6024282880100004009GRAHAM                   0000003000000001      0000000000000000000000000000000000000             
0404230070428        KYRENE SCHOOL DISTRICT 28     8700 S KYRENE RD         TEMPE             AZ85284    6024964600100004013MARICOPA                 0062002PK08000130004390000010092800009281001200000000000000             
0404280080201        LAKE HAVASU UNIFIED DISTRICT  750 HAVASUPAI BLVD       LAKE HAVASU C     AZ86403    6027861   100004015MOHAVE                   0000003KG12000080001730000350035650003600000409000221000000             
0404290070459        LAVEEN SCHOOL DISTRICT 59     PO BOX 29                LAVEEN            AZ85339    6022574970100004013MARICOPA                 0062002KG08000020000910000480017540001802000244000000000000             
0404320070425        LIBERTY SCHOOL DISTRICT 25    ROUTE 3 BOX 145          BUCKEYE           AZ85326    6029353912100004013MARICOPA                 0062002KG08000020000450000000007660000766000146000000000000             
0404380070479        LITCHFIELD SCHOOL DISTRICT 79 553 PLAZA CIRCLE SUITE A LITCHFIELD PA     AZ85340    6022573001100004013MARICOPA                 0062002KG08000020000670000130013990001412000180000000000000             
0404410080409        LITTLEFIELD SCHOOL DIST 9     P O BOX 317              LITTLEFIELD       AZ86432    6023475796100004015MOHAVE                   0000003KG06000010000040000000000540000054000004000000000000             
0404440070465        LITTLETON SCHOOL DISTRICT 65  P. O. BOX 280            CASHION           AZ85329    6029363333100004013MARICOPA                 0062002PK08000020000750000660011850001251000198000000000000             
0404500070438        MADISON SCHOOL DISTRICT 38    5601 N 16TH ST           PHOENIX           AZ85016    6022645951100004013MARICOPA                 0062002KG08000060001930000550035880003643000879000000000000             
0404530030310        MAINE CONSOLIDATED DIST 10    P O BOX 7                PARKS             AZ86018    6026352115100004005COCONINO                 0000003KG06000010000080000000000700000070000006000000000000             
0404570110208        MAMMOTH-SAN MANUEL UNIF DIST  BOX 406                  SAN MANUEL        AZ85631    6023852335100004021PINAL                    0000003KG12000050001160000060020220002028000296000115000000             
0404630100206        MARANA UNIFIED DISTRICT #6    11279 W GRIER RD         MARANA            AZ85653    6026238431100004019PIMA                     0085202PK12000120003500000020071970007199000706000389000000             
0404720110220        MARICOPA UNIFIED SCH DIST #20 PO BOX 310               MARICOPA          AZ85239    6025682293100004021PINAL                    0000003KG12000030000560000000008770000877000094000067000000             
0404770100351        ALTAR VALLEY DIST #51         HC 04, BOX 6870          TUCSON            AZ85735    6028834025100004019PIMA                     0085202KG08000010000290000000005060000506000084000000000000             
0404820130243        MAYER UNIFIED DIST 43         HC 63 BOX 180            MAYER             AZ86333    6026327834100004025YAVAPAI                  0000003KG12000020000310000120004800000492000058000015000000             
0404860010323        MCNARY SCHOOL DISTRICT 23     P O BOX 598              MCNARY            AZ85930    6023342294100004001APACHE                   0000003KG08000010000050000000000780000078000012000000000000             
0404920020355        MC NEAL SCHOOL DISTRICT #55   P O BOX 8                MC NEAL           AZ85617    6026423356100004003COCHISE                  0000003KG08000010000030000000000380000038000008000000000000             
0404970070204        MESA UNIFIED SCHOOL DISTRICT  549 N STAPLEY DR         MESA              AZ85203    6028987700100004013MARICOPA                 0062002PK12000630027550005070611290061636007648003234000000             
0405030040240        MIAMI UNIFIED DIST 40         DRAWER H                 MIAMI             AZ85539    6024253271100004007GILA                     0000003PK12000060000950000000018730001873000410000113000000             
0405070130504        MINGUS UNION HIGH SCHOOL 4    1801 EAST FIR ST         COTTONWOOD        AZ86326    6026347531100004025YAVAPAI                  00000030912000010000570000000011460001146000110000212000000             
0405100070386        MOBILE SCHOOL DISTRICT #86    RT 1 BOX 849             MARICOPA          AZ85239    6025682280100004013MARICOPA                 0062002KG08000010000020000000000170000017000003000000000000             
0405170080530        MOHAVE UNION H S #30          323 GOLD ST              KINGMAN           AZ86401    6027536211100004015MOHAVE                   00000030912000010000690000000014310001431000126000467000000             
0405190080416        MOHAVE VALLEY SCHOOL DIST #16 P O BOX 5070             MOHAVE VALLEY     AZ86440    6027684538100004015MOHAVE                   0000003KG08000030000580000010011360001137000172000000000000             
0405220140417        MOHAWK VALLEY SCHOOL DIST 17  P O BOX 67               ROLL              AZ85347    6027854942100004027YUMA                     0000003KG08000010000160000000002540000254000021000000000000             
0405320060218        MORENCI UNIFIED DISTRICT 18   P. O. BOX 1060           MORENCI           AZ85540    6028652081100004011GREENLEE                 0000003KG12000020000540000000010580001058000055000061000000             
0405340070375        MORRISTOWN SCHOOL DISTRICT 75 P. O. BOX 98             MORRISTOWN        AZ85342    6023882336100004013MARICOPA                 0062002KG08000010000050000000000620000062000024000000000000             
0405360100100        ZIMMERMAN ACCOM NO 00         130 W CONGRESS ST        TUCSON            AZ85701    6021340   100004019PIMA                     0085202KG0500001      0000000000150000015000000000000000000             
0405400070421        MURPHY SCHOOL DISTRICT 21     2615 W BUCKEYE RD        PHOENIX           AZ85009    6024844000100004013MARICOPA                 0062002PK08000040001360000280023820002410000191000000000000             
0405430020323        NACO SCHOOL DISTRICT #23      PO BOX 397               NACO              AZ85620    6024325060100004003COCHISE                  0000003KG08000010000150000000002280000228000025000000000000             
0405460070381        NADABURG SCHOOL DISTRICT 81   PO BOX 100               WITTMANN          AZ85361    6022520529100004013MARICOPA                 0062002PK08000010000200000050003710000376000115000000000000             
0405500090199        RAINBOW FOUNDATION            602 MISSION LANE         HOLBROOK          AZ86025    6025242123400004017NAVAJO                   0000003PKPK000010000020000030000060000009000008000000000000             
0405530120201        NOGALES UNIFIED DIST 1        222 PLUM STREET          NOGALES           AZ85621    6022874977100004023SANTA CRUZ               0000003KG12000080002590000340056170005651000573000330000000             
0405640110302        ORACLE SCHOOL DISTRICT 2      P O BOX 1660             ORACLE            AZ85623    6028962550100004021PINAL                    0000003KG08000030000330000260005290000555000120000000000000             
0405670070408        OSBORN SCHOOL DISTRICT 8      1226 W OSBORN RD         PHOENIX           AZ85013    6022343366100004013MARICOPA                 0062002KG08000050001600000080029390002947000281000000000000             
0405730080406        OWENS WHITNEY SCHOOL DIST #6  P O BOX 38               WIKIEUP           AZ85360    6027652311100004015MOHAVE                   0000003KG08000010000030000000000590000059000004000000000000             
0405760040333        TONTO BASIN ELEM DIST #33     P O BOX 337              TONTO BASIN       AZ85553    6024792277100004007GILA                     0000003KG08000010000040000000000530000053000004000000000000             
0405820030208        PAGE UNIFIED DISTRICT #8      P O BOX 1927             PAGE              AZ86040    6026458801100004005COCONINO                 0000003KG12000040001470000240032070003231000371000177000000             
0405850070449        PALO VERDE SCHOOL DISTRICT 49 PO BOX 108               PALO VERDE        AZ85343    6023864461100004013MARICOPA                 0062002KG08000010000110000010002140000215000025000000000000             
0405880020349        PALOMINAS SCHOOL DISTRICT #49 PO BOX 38                HEREFORD          AZ85615    6023665441100004003COCHISE                  0000003KG08000010000280000000005260000526000057000000000000             
0405930070269        PARADISE VALLEY UNIFIED DIST  15002 N 32ND ST          PHOENIX           AZ85032    6028675100100004013MARICOPA                 0062002PK12000300012340000030259660025969002367001628000000             
0405980150227        PARKER UNIFIED SCHOOL DIST 27 P O BOX 1089             PARKER            AZ85344    6026699244100004012LA PAZ                   0000003KG12000040001060000140021500002164000227000107000000             
0406000120406        PATAGONIA SCHOOL DISTRICT 6   P. O. BOX 295            PATAGONIA         AZ85624    6023942972100004023SANTA CRUZ               0000003KG05000010000080000000001210000121000032000000000000             
0406030120520        PATAGONIA UHS DIST 20         P. O. BOX 254            PATAGONIA         AZ85624    6023942203100004023SANTA CRUZ               00000030612000010000100000000001640000164000016000026000000             
0406070040210        PAYSON UNIFIED DIST 10        PO BOX 919               PAYSON            AZ85547    6022463   100004007GILA                     0000003KG12000040001020000000018180001818000238000125000000             
0406120080408        PEACH SPRINGS SCHOOL DIST #8  P O BOX 138              PEACH SPRINGS     AZ86434    6027692202100004015MOHAVE                   0000003KG08000010000130000000002050000205000043000000000000             
0406150020422        PEARCE SCHOOL DISTRICT #22    P O DRAWER 127           PEARCE            AZ85625    6028263328100004003COCHISE                  0000003KG08000010000100000030001750000178000013000000000000             
0406210070492        PENDERGAST SCHOOL DISTRICT 92 3802 N 91ST AVE          PHOENIX           AZ85037    6028728484100004013MARICOPA                 0062002KG08000040001960000180038140003832000475000000000000             
0406250070211        PEORIA UNIFIED DIST 11        P O BOX 39               PEORIA            AZ85345    6028781000100004013MARICOPA                 0062002PK12000200009360002140196460019860003515001062000000             
0406300070401        PHOENIX ELEM SCHOOL DISTRICT  125 E LINCOLN ST         PHOENIX           AZ85004    6022573755100004013MARICOPA                 0062001PK08000140003890001430073910007534000866000000000000             
0406330070510        PHOENIX UHS DISTRICT 210      4502 N CENTRAL AVE       PHOENIX           AZ85012    6022713141100004013MARICOPA                 00620010912000150010100000000181810018181002006002813000000             
0406360110433        PICACHO SCHOOL DISTRICT 33    P. O. BOX 8              PICACHO           AZ85241    6024667942100004021PINAL                    0000003KG08000010000130000000001720000172000024000000000000             
0406440050206        PIMA UNIFIED SCHOOL DISTRICT  P O BOX 429              PIMA              AZ85543    6024852421100004009GRAHAM                   0000003KG12000020000320000000006700000670000062000041000000             
0406460100199        PIMA SPECIAL PROGRAMS         130 W CONGRESS ST        TUCSON            AZ85701    6028451   400004019PIMA                     00852020000000010000000000000000000000000000000000000000000             
0406480110199        PINAL SPECIAL PROGRAMS        RURAL STATION BOX 3125   CASA GRANDE       AZ85222    6027235371400004021PINAL                    00000030101000010000020000200000010000021000069000000000000             
0406510040312        PINE SCHOOL DISTRICT 12       P O BOX 1150             PINE              AZ85544    6024763283100004007GILA                     0000003KG08000010000170000000002500000250000048000000000000             
0406580090232        BLUE RIDGE UNIF #32           PO BOX 885               LAKESIDE          AZ85929    6023686126100004017NAVAJO                   0000003KG12000040000950000050017350001740000193000121000000             
0406630020464        POMERENE SCHOOL DISTRICT #64  P O BOX 7                POMERENE          AZ85627    6025862407100004003COCHISE                  0000003KG08000010000060000000001080000108000018000000000000             
0406730130201        PRESCOTT UNIFIED DIST 1       146 S GRANITE ST         PRESCOTT          AZ86303    6024455400100004025YAVAPAI                  0000003KG12000090002560000270049560004983000887000328000000             
0406740010218        SANDERS UNIFIED DISTRICT 18   P O BOX 250              SANDERS           AZ86512    6026882707100004001APACHE                   0000003KG12000030000590000000008710000871000053000036000000             
0406780150404        QUARTZSITE SCHOOL DIST 4      P O BOX 130              EHRENBERG         AZ85334    6029239617100004012LA PAZ                   0000003KG08000010000160000130002840000297000039000000000000             
0406810070295        QUEEN CREEK UNIFIED DIST 95   20435 S ELLSWORTH        QUEEN CREEK       AZ85242    6029879600100004013MARICOPA                 0062002KG12000030000520000060008350000841000135000042000000             
0406850110203        RAY UNIFIED DIST 3            BOX 427                  KEARNY            AZ85237    6023635515100004021PINAL                    0000003KG12000030000610000010010740001075000143000079000000             
0406870010227        RED MESA UNIF DIST 27         STAR RT 1 BOX 40         TEEC NOS POS      AZ86514    6023511   100004001APACHE                   0000003KG12000030000590000000007830000783000066000076000000             
0406900110405        RED ROCK SCHOOL DIST 5        P O BOX 1010             RED ROCK          AZ85245    6026823331100004021PINAL                    0000003KG08000010000050000000000580000058000000000000000000             
0406930100344        REDINGTON SCHOOL DIST #44     BOX HCR 830              REDINGTON         AZ85602    6022999408100004019PIMA                     0085202000000001      0000000000000000000000000000000000000             
0406960040220        SAN CARLOS UNIFIED DIST 20    P O BOX 207              SAN CARLOS        AZ85550    60247523151   04007GILA                     0000003KG08000010000490000090009630000972000135000000000000             
0407020070402        RIVERSIDE SCHOOL DISTRICT 2   1414 SOUTH 51ST AVE      PHOENIX           AZ85031    6022721339100004013MARICOPA                 0062002KG0800001      0000080001740000182000026000000000000             
0407080070466        ROOSEVELT SCHOOL DISTRICT 66  6000 S 7TH ST            PHOENIX           AZ85040    6022434800100004013MARICOPA                 0062002PK08000180005210005190097570010276000970000000000000             
0407130010210        ROUND VALLEY UNIFIED DIST 10  P O BOX 610              SPRINGERVILLE     AZ85938    6023334315100004001APACHE                   0000003KG12000040001140000290019740002003000163000106000000             
0407140020366        RUCKER SCHOOL DISTRICT #66    P O BOX 618              ELFRIDA           AZ85610    6028243589100004003COCHISE                  00000030000           0000000000000000000000000000000000000             
0407170070390        RUTH FISHER SCHOOL DISTRICT   HC02 BOX 583             TONOPAH           AZ85354    6023865688100004013MARICOPA                 0062002KG08000010000130000000002390000239000039000000000000             
0407200110418        SACATON SCHOOL DISTRICT 18    P. O. BOX 98             SACATON           AZ85247    6025623339100004021PINAL                    0000003KG08000020000450000150007640000779000124000000000000             
0407240050201        SAFFORD UNIFIED DISTRICT 1    734 11TH ST              SAFFORD           AZ85546    6024282950100004009GRAHAM                   0000003KG12000040001180000190026120002631000189000168000000             
0407300100230        SAHUARITA UNIFIED DIST 30     P O BOX 26               SAHUARITA         AZ85629    6027912836100004019PIMA                     0085202PK12000040001040000650015310001596000222000117000000             
0407380100335        SAN FERNANDO SCHOOL DIST 35   P O BOX 80               SASABE            AZ85633    6028234243100004019PIMA                     00852020104000010000010000000000090000009000001000000000000             
0407430020218        SAN SIMON UNIFIED DISTRICT    P O BOX 38               SAN SIMON         AZ85632    6028452275100004003COCHISE                  0000003KG12000020000110000000000970000097000005000007000000             
0407500120328        SANTA CRUZ SCHOOL DISTRICT 28 H C R BOX 50             NOGALES           AZ85621    6022878758100004023SANTA CRUZ               0000003KG08000010000080000000001000000100000005000000000000             
0407520120235        SANTA CRUZ VLY UNIFIED        P O BOX 187              TUMACACORI        AZ85640    6028282   100004023SANTA CRUZ               0000003KG08000030000500000230008510000874000117000000000000             
0407530110540        SANTA CRUZ VALLEY UHS DIST 40 NINTH & MAIN ST          ELOY              AZ85231    6024667391100004021PINAL                    00000030912000010000240000150004470000462000068000076000000             
0407570070248        SCOTTSDALE UNIFIED DIST 48    3811 NORTH 44TH ST       PHOENIX           AZ85018    6029526100100004013MARICOPA                 0062002PK12000250010580002740190080019282004011001694000000             
0407630130240        SELIGMAN UNIFIED DIST 40      PO BOX 278               SELIGMAN          AZ86337    6024223233100004025YAVAPAI                  0000003KG12000020000140000000001520000152000014000014000000             
0407680070371        SENTINEL SCHOOL DISTRICT 71   STAR ROUTE BOX 57        DATELAND          AZ85333    6024542474100004013MARICOPA                 0062002KG08000010000020000000000430000043000011000000000000             
0407700090210        SHOW LOW UNIFIED DIST 10      500 W OLD LINDEN RD      SHOWLOW           AZ85901    6025354238100004017NAVAJO                   0000003KG12000070001070000000021050002105000301000097000000             
0407750070297        DEER VALLEY UNIFIED DIST 97   20402 N 15TH AVE         PHOENIX           AZ85027    6025817700100004013MARICOPA                 0062002PK12000170007720001250151660015291001055000767000000             
0407770130315        SKULL VALLEY SCHOOL DIST 15   PO BOX 127               SKULL VALLEY      AZ86338    6024423322100004025YAVAPAI                  0000003KG06000010000030000000000340000034000005000000000000             
0407820090205        SNOWFLAKE UNIFIED DIST 5      PO BOX 1100              SNOWFLAKE         AZ85937    6025364156100004017NAVAJO                   0000003KG12000050001200000070024500002457000341000158000000             
0407860050305        SOLOMONVILLE SCHOOL DIST 5    PO BOX 167               SOLOMON           AZ85551    6024280477100004009GRAHAM                   0000003KG0800001      0000000002040000204000030000000000000             
0407890140411        SOMERTON SCHOOL DISTRICT 11   P O BIN E                SOMERTON          AZ85350    6026278728100004027YUMA                     0000003PK08000020000960000140016700001684000295000000000000             
0407920120425        SONOITA SCHOOL DISTRICT 25    P O BOX 36               ELGIN             AZ85611    6024555514100004023SANTA CRUZ               0000003KG08000010000080000000000850000085000014000000000000             
0408020020221        ST DAVID UNIFIED DIST 21      PO BOX 70                ST DAVID          AZ85630    6025864492100004003COCHISE                  0000003PK12000020000240000000004260000426000078000019000000             
0408080010201        ST JOHNS UNIFIED DIST #1      P O BOX 3030             ST JOHNS          AZ85936    6023372255100004001APACHE                   0000003KG12000030000720000070013700001377000095000092000000             
0408130110424        STANFIELD SCHOOL DIST 24      P O BOX 578              STANFIELD         AZ85272    6024243472100004021PINAL                    0000003KG08000010000290000000003820000382000050000000000000             
0408170100212        SUNNYSIDE UNIFIED DIST 12     2238 E GINTER RD         TUCSON            AZ85706    6027412500100004019PIMA                     0085202PK12000170006530005860121560012742001411000544000000             
0408230110215        SUPERIOR UNIFIED DIST #15     199 LOBB AVENUE          SUPERIOR          AZ85273    6026895291100004021PINAL                    0000003KG12000030000480000000007290000729000086000046000000             
0408280100213        TANQUE VERDE UNIF DIST 13     4201 N MELPOMENE WAY     TUCSON            AZ85749    6027495751100004019PIMA                     0085202KG09000030000690000000012120001212000185000000000000             
0408310070403        TEMPE ELEM SCH DIST           PO BOX 27708             TEMPE             AZ85282    6028397100100004013MARICOPA                 0062002KG08000230006720002050120660012271000946000000000000             
0408340070513        TEMPE UNION HS DIST 213       500 W GUADALUPE RD       TEMPE             AZ85283    6028390292100004013MARICOPA                 00620020912000050003920000070080360008043002239001798000000             
0408410050204        THATCHER UNIFIED SCHOOL DIST  PO BOX 610               THATCHER          AZ85552    6024286381100004009GRAHAM                   0000003KG12000040000660000000013800001380000110000077000000             
0408430070394        PALOMA SCHOOL DISTRICT 94     STAR ROUTE BOX 172       GILA BEND         AZ85337    6022562428100004013MARICOPA                 0062002KG08000010000070000000000840000084000014000000000000             
0408460130335        HILLSIDE DIST #35             BAGDAD RT HILLSIDE STA   BAGDAD            AZ86321    6024423416100004025YAVAPAI                  0000003KG06000010000030000000000320000032000001000000000000             
0408490070417        TOLLESON SCHOOL DISTRICT 17   P O BOX 278              TOLLESON          AZ85353    6022576151100004013MARICOPA                 0062002PK08000030000430000090008620000871000118000000000000             
0408520070514        TOLLESON UNION HS DIST 214    9419 W VAN BUREN ST      TOLLESON          AZ85353    6022474222100004013MARICOPA                 00620020912000020001120000000022810002281000171000368000000             
0408550110422        TOLTEC SCHOOL DISTRICT 22     RT. 1 BOX 390            ELOY              AZ85231    6024667807100004021PINAL                    0000003KG08000010000240000000004430000443000038000000000000             
0408600020201        TOMBSTONE UNIFIED DIST 1      PO BOX 1000              TOMBSTONE         AZ85638    6024572217100004003COCHISE                  0000003KG12000030000560000050009950001000000113000068000000             
0408640080412        TOPOCK SCHOOL DISTRICT #12    P O BOX 37               TOPOCK            AZ86436    6027682466100004015MOHAVE                   0000003000000001      0000000000000000000000000000000000000             
0408680030215        TUBA CITY UNIFIED DIST 15     PO BOX 67                TUBA CITY         AZ86045    6022834211100004005COCONINO                 0000003KG12000060002070000930027150002808000305000238000000             
0408800100201        TUCSON UNIFIED DISTRICT #1    P O BOX 40400            TUCSON            AZ85717    6028822400100004019PIMA                     0085202PK12001040024970000000561150056115007666003242000000             
0408820070462        UNION SCHOOL DISTRICT 62      3834 SO 91ST AVENUE      TOLLESON          AZ85353    6022572917100004013MARICOPA                 0062002KG08000010000070000000000830000083000016000000000000             
0408850100320        VAIL SCHOOL DISTRICT 20       P O BOX 800              VAIL              AZ85641    6026225734100004019PIMA                     0085202KG08000010000310000000005140000514000066000000000000             
0408880080422        VALENTINE ELEM SCHOOL DIST    STAR ROUTE, BOX 50       PEACH SPRINGS     AZ86434    6027692310100004015MOHAVE                   0000003KG08000010000030000000000530000053000000000000000000             
0408910020522        VALLEY UHS DISTRICT #22       P O BOX 158              ELFRIDA           AZ85610    6026423492100004003COCHISE                  00000030912000010000110000000001710000171000027000036000000             
0409030130307        WALNUT GROVE SCH DIST 7       STAR ROUTE               KIRKLAND          AZ86332    6024273711100004025YAVAPAI                  00000030000           0000000000000000000000000000000000000             
0409060070406        WASHINGTON SCHOOL DISTRICT 6  8610 N 19TH AVE          PHOENIX           AZ85021    6028642600100004013MARICOPA                 0062002KG08000320011270002190216520021871005046000000000000             
0409090140424        WELLTON SCHOOL DISTRICT 24    PO BOX 517               WELLTON           AZ85356    6027853311100004027YUMA                     0000003KG08000010000230000020003920000394000050000000000000             
0409120150419        WENDEN ELEMENTARY DISTRICT 19 P O BOX 8                WENDEN            AZ85357    6028593806100004012LA PAZ                   0000003KG08000010000070000000000920000092000016000000000000             
0409160090220        WHITERIVER UNIFIED DIST #20   PO BOX 190               WHITERIVER        AZ85941    6023384842100004017NAVAJO                   0000003PK12000040001110000000018790001879000202000070000000             
0409190070209        WICKENBURG UNIFIED DIST #9    P O BOX 1418             WICKENBURG        AZ85358    6026845556100004013MARICOPA                 0062002KG12000030000670000010011380001139000103000084000000             
0409250020213        WILLCOX UNIFIED DIST 13       480 N BISBEE AVE         WILLCOX           AZ85643    6023844211100004003COCHISE                  0000003KG12000030000800000050013860001391000144000085000000             
0409290070100        WILLIAMS AFB ACCOM SCHOOL     11 COOLIDGE ST           WILLIAMS AFB      AZ85225    6028921102100004013MARICOPA                 0062002PK09000010000260000310005640000595000124000000000000             
0409310030202        WILLIAMS UNIFIED DIST 2       515 S 9TH ST             WILLIAMS          AZ86046    6026354473100004005COCONINO                 0000003PK12000030000400000050006360000641000063000023000000             
0409360130302        WILLIAMSON VALLEY SCH DIST 2  HC30 BOX 1024            PRESCOTT          AZ86301    6026362258100004025YAVAPAI                  00000030000           0000000000000000000000000000000000000             
0409390070407        WILSON SCHOOL DISTRICT        3025 EAST FILLMORE       PHOENIX           AZ85008    6022758785100004013MARICOPA                 0062002KG08000020000510000040007250000729000064000000000000             
0409430010208        WINDOW ROCK UNIFIED DIST #8   P O BOX 559              FORT DEFIANCE     AZ86504    6027295705100004001APACHE                   0000003KG12000040001780000000030130003013000203000112000000             
0409460090201        WINSLOW UNIFIED DIST 1        P O BOX 580              WINSLOW           AZ86047    6022893375100004017NAVAJO                   0000003KG12000050001140000030024520002455000272000154000000             
0409510130352        YARNELL SCHOOL DISTRICT 52    P O BOX 575              YARNELL           AZ85362    6024273281100004025YAVAPAI                  0000003PK06000010000050000000000660000066000015000000000000             
0409540040305        YOUNG SCHOOL DISTRICT 5       P O BOX 390              YOUNG             AZ85554    6024623244100004007GILA                     0000003KG12000020000080000000000750000075000012000008000000             
0409570080413        YUCCA ELM SCHOOL DISTRICT #13 P O BOX 128              YUCCA             AZ86438    6027662581100004015MOHAVE                   0000003KG06000010000010000000000150000015000000000000000000             
0409600140401        YUMA SCHOOL DISTRICT 1        450 SIXTH STREET         YUMA              AZ85364    6027826581100004027YUMA                     0000003KG08000140003660001520073560007508000921000000000000             
0409630140570        YUMA UNION HIGH SCHOOL DIST   3150 AVENUE A            YUMA              AZ85364    6027261733100004027YUMA                     00000030912000030002790000000056460005646000276000962000000             
0409700070177        SPECIAL ED ACCOM #512         11 COOLIDGE ST           WILLIAMS AFB      AZ85225    6028921102100004013MARICOPA                 00620020000           0000010000030000004000038000000000000             
0409730020199        COCHISE CO EDUC SER           118 SOUTH ARIZONA        BISBEE            AZ85603    6024325481100004003COCHISE                  0000003000000001      0000000000000000000000000000000000000             
050000101-01-000     DE WITT SCHOOL DISTRICT       204 N JACKSON            DEWITT            AR72042    5019463576100005001ARKANSAS                 0000003KG12000040000950000250013890001414000135000091N     N     N      
050000303-06-000     TRI-COUNTY SCHOOL DISTRICT    PO BOX 1                 BIG FLAT          AR72617    5014482594100005005BAXTER                   0000003KG12000020000200000000001770000177000022000017N     N     N      
050000404-20-000     BENTON COUNTY CO OP           P.O. BOX 269             BENTONVILLE       AR72712    5018462171400005007BENTON                   00000030000           N     N            N     N     N     N     N      
050000505-20-000     OZARKS UNLIMITED RESOURCE COOP322 INDUSTRIAL PARK RD   HARRISON          AR7260219905017413999400005009BOONE                    00000030000           N     N            N     N     N     N     N      
050000606-02-000     WARREN SCHOOL DISTRICT        803 N WALNUT             WARREN            AR71671    5012266738100005011BRADLEY                  0000003KG12000040001250000000018060001806000115000128N     N     N      
050000709-02-000     EUDORA SCHOOL DISTRICT        111 N ARCHER             EUDORA            AR71640    5013552546100005017CHICOT                   0000003KG12000040000810000060009960001002000123000072N     N     N      
050000810-20-000     DAWSON EDUCATION SERVICE COOP 1021 HENDERSON           ARKADELPHIA       AR71923    5012463077400005019CLARK                    00000030000           N     N            N     N     N     N     N      
050000911-01-000     CORNING SCHOOL DISTRICT       P O DRAWER 479           CORNING           AR72422    5018576818100005021CLAY                     0000003KG12000030000850000000013180001318000116000062N     N     N      
050001013-01-000     KINGSLAND SCHOOL DISTRICT     ROUTE 1 BOX 26           KINGSLAND         AR71652    5013485335100005025CLEVELAND                0000003KG12000020000310000010004050000406000040000024N     N     N      
050001115-20-000     ARCH FORD EDUCATION SERVICE   209 SO BARRAMORE         MORRILTON         AR72110    5013542269400005029CONWAY                   00000030000           N     N            N     N     N     N     N      
050001216-13-000     RIVERSIDE SCHOOL DISTRICT     PO BX 178                LAKE CITY         AR72437    5012374329100005031CRAIGHEAD                0000003PK12000040000750000060008600000866000123000043N     N     N      
050001322-20-000     SOUTHEAST ARK ED SERVICE CO OPBOX 3507 UAM             MONTICELLO        AR71655    5013676848400005043DREW                     00000030000           N     N            N     N     N     N     N      
050001424-20-000     WESTERN ARKANSAS COOPERATIVE  RT BX 104                BRANCH            AR72928    5019652191400005047FRANKLIN                 00000030000           N     N            N     N     N     N     N      
050001527-05-000     SHERIDAN SCHOOL DISTRICT      400 N ROCK               SHERIDAN          AR72150    5019423135100005053GRANT                    0000003KG12000050001950000160033940003410000274000239N     N     N      
050001628-03-000     MARMADUKE SCHOOL DISTRICT     1010 GREYHOUND           MARMADUKE         AR72443    5015972723100005055GREENE                   0000003KG12000030000440000120006460000658000076000046N     N     N      
050001728-08-000     NORTHEAST ARK SP SCHOOL DIST  PO BOX 37                PARAGOULD         AR72450    5012392105100005055GREENE                   0000003KG12000080001710000380024230002461000293000144N     N     N      
050001829-20-000     SOUTHWEST ARKANSAS COOPERATIVE513 E SHOVER             HOPE              AR71801    5017773076400005057HEMPSTEAD                00000030000           N     N            N     N     N     N     N      
